:020000040800F2
:1000000000000220C11A0008F518000803190008B2
:10001000091900080F190008151900080000000050
:100020000000000000000000000000001B19000894
:1000300029190008000000003719000845190008B8
:10004000111B0008111B0008111B0008111B0008E0
:10005000111B0008111B000851190008991900080C
:10006000E1190008111B0008111B0008111B0008F2
:10007000111B0008111B0008111B0008111B0008B0
:10008000111B0008111B0008111B0008111B0008A0
:10009000111B0008111B0008111B0008111B000890
:1000A000111B0008111B0008111B0008111B000880
:1000B000111B0008111B0008111B0008111B000870
:1000C000111B0008111B0008111B0008111B000860
:1000D000111B0008111B0008111B0008111B000850
:1000E000111B0008111B0008111B0008111B000840
:1000F000111B0008111B0008111B0008111B000830
:10010000111B0008111B0008111B0008111B00081F
:10011000111B0008111B0008111B0008111B00080F
:10012000111B0008111B0008111B0008111B0008FF
:10013000111B00080000000000000000111B000857
:10014000111B0008111B0008111B0008291A0008C8
:10015000111B0008111B0008111B0008111B0008CF
:10016000111B0008111B0008111B0008111B0008BF
:10017000111B0008111B0008000000000000000017
:08018000111B0008111B00080F
:1001880010B5054C237833B9044B13B10448AFF3C9
:1001980000800123237010BDF4010020000000003E
:1001A8002485000808B5034B1BB103490348AFF386
:1001B800008008BD00000000F80100202485000828
:1001C800034613F8012B002AFBD1181A013870478F
:1001D80081F0004102E000BF83F0004330B54FEAF0
:1001E80041044FEA430594EA050F08BF90EA020F5D
:1001F8001FBF54EA000C55EA020C7FEA645C7FEAF0
:10020800655C00F0E2804FEA5454D4EB5555B8BF12
:100218006D420CDD2C4480EA020281EA030382EA83
:10022800000083EA010180EA020281EA0303362D15
:1002380088BF30BD11F0004F4FEA01314FF4801CE8
:100248004CEA113102D0404261EB410113F0004FFA
:100258004FEA03334CEA133302D0524263EB4303B1
:1002680094EA050F00F0A780A4F10104D5F1200E4F
:100278000DDB02FA0EFC22FA05F2801841F10001AA
:1002880003FA0EF2801843FA05F359410EE0A5F17E
:1002980020050EF1200E012A03FA0EFC28BF4CF0AF
:1002A800020C43FA05F3C01851EBE37101F0004565
:1002B80007D54FF0000EDCF1000C7EEB00006EEB72
:1002C8000101B1F5801F1BD3B1F5001F0CD34908FC
:1002D8005FEA30004FEA3C0C04F101044FEA445253
:1002E80012F5800F80F09A80BCF1004F08BF5FEADA
:1002F800500C50F1000041EB045141EA050130BDBA
:100308005FEA4C0C404141EB010111F4801FA4F15C
:100318000104E9D191F0000F04BF01460020B1FAB1
:1003280081F308BF2033A3F10B03B3F120020CDAE9
:100338000C3208DD02F1140CC2F10C0201FA0CF0C7
:1003480021FA02F10CE002F11402D8BFC2F1200C2C
:1003580001FA02F120FA0CFCDCBF41EA0C019040E2
:10036800E41AA2BF01EB0451294330BD6FEA04042B
:100378001F3C1CDA0C340EDC04F11404C4F1200216
:1003880020FA04F001FA02F340EA030021FA04F328
:1003980045EA030130BDC4F10C04C4F1200220FA7F
:1003A80002F001FA04F340EA0300294630BD21FABD
:1003B80004F0294630BD94F0000F83F4801306BF83
:1003C80081F480110134013D4EE77FEA645C18BF77
:1003D8007FEA655C29D094EA050F08BF90EA020F0E
:1003E80005D054EA000C04BF1946104630BD91EA06
:1003F800030F1EBF0021002030BD5FEA545C05D109
:100408004000494128BF41F0004130BD14F5800447
:100418003CBF01F5801130BD01F0004545F0FE41BB
:1004280041F470014FF0000030BD7FEA645C1ABFF0
:10043800194610467FEA655C1CBF0B46024650EA27
:10044800013406BF52EA033591EA030F41F4002153
:1004580030BD00BF90F0000F04BF0021704730B5D9
:100468004FF4806404F132044FF000054FF00001AE
:1004780050E700BF90F0000F04BF0021704730B56F
:100488004FF4806404F1320410F0004548BF404244
:100498004FF000013EE700BF42004FEAE2014FEA99
:1004A80031014FEA02701FBF12F07F4393F07F4F74
:1004B80081F06051704732F07F4208BF704793F077
:1004C8007F4F04BF41F40021704730B54FF460748A
:1004D80001F0004521F000411CE700BF50EA01028D
:1004E80008BF704730B54FF000050AE050EA010236
:1004F80008BF704730B511F0004502D5404261EBA6
:1005080041014FF4806404F132045FEA915C3FF4E6
:10051800D8AE4FF003025FEADC0C18BF03325FEA83
:10052800DC0C18BF033202EBDC02C2F1200300FA34
:1005380003FC20FA02F001FA03FE40EA0E0021FA59
:1005480002F11444BDE600BF70B54FF0FF0C4CF447
:10055800E06C1CEA11541DBF1CEA135594EA0C0FF9
:1005680095EA0C0F00F0DEF82C4481EA030621EA34
:100578004C5123EA4C5350EA013518BF52EA03356F
:1005880041F4801143F4801338D0A0FB02CE4FF021
:100598000005E1FB02E506F00042E0FB03E54FF051
:1005A8000006E1FB03569CF0000F18BF4EF0010E49
:1005B800A4F1FF04B6F5007F64F5407404D25FEA45
:1005C8004E0E6D4146EB060642EAC62141EA5551F8
:1005D8004FEAC52040EA5E504FEACE2EB4F1FD0C3A
:1005E80088BFBCF5E06F1ED8BEF1004F08BF5FEAB8
:1005F800500E50F1000041EB045170BD06F000466A
:1006080046EA010140EA020081EA0301B4EB5C0416
:10061800C2BFD4EB0C0541EA045170BD41F480110E
:100628004FF0000E013C00F3AB8014F1360FDEBF33
:10063800002001F0004170BDC4F10004203C35DA0F
:100648000C341BDC04F11404C4F1200500FA05F392
:1006580020FA04F001FA05F240EA020001F0004233
:1006680021F0004110EBD37021FA04F642EB0601A9
:100678005EEA430E08BF20EAD37070BDC4F10C04D3
:10068800C4F1200500FA04F320FA05F001FA04F297
:1006980040EA020001F0004110EBD37041F1000183
:1006A8005EEA430E08BF20EAD37070BDC4F120058E
:1006B80000FA05F24EEA020E20FA04F301FA05F2F6
:1006C80043EA020321FA04F001F0004121FA04F29E
:1006D80020EA020000EBD3705EEA430E08BF20EA6E
:1006E800D37070BD94F0000F0FD101F000464000A8
:1006F80041EB010111F4801F08BF013CF7D041EA2A
:10070800060195F0000F18BF704703F0004652002D
:1007180043EB030313F4801F08BF013DF7D043EAFE
:100728000603704794EA0C0F0CEA135518BF95EAB4
:100738000C0F0CD050EA410618BF52EA4306D1D13B
:1007480081EA030101F000414FF0000070BD50EA5A
:10075800410606BF1046194652EA430619D094EAE4
:100768000C0F02D150EA013613D195EA0C0F05D1CE
:1007780052EA03361CBF104619460AD181EA030122
:1007880001F0004141F0FE4141F470014FF00000DA
:1007980070BD41F0FE4141F4780170BD70B54FF075
:1007A800FF0C4CF4E06C1CEA11541DBF1CEA1355F5
:1007B80094EA0C0F95EA0C0F00F0A7F8A4EB0504D7
:1007C80081EA030E52EA03354FEA013100F08880CE
:1007D8004FEA03334FF0805545EA131343EA126397
:1007E8004FEA022245EA111545EA10654FEA00264C
:1007F8000EF000419D4208BF964244F1FD0404F505
:10080800407402D25B084FEA3202B61A65EB030560
:100818005B084FEA32024FF480104FF4002CB6EB1D
:10082800020E75EB030E22BFB61A754640EA0C009D
:100838005B084FEA3202B6EB020E75EB030E22BFDD
:10084800B61A754640EA5C005B084FEA3202B6EB1E
:10085800020E75EB030E22BFB61A754640EA9C00DD
:100868005B084FEA3202B6EB020E75EB030E22BFAD
:10087800B61A754640EADC0055EA060E18D04FEA6B
:10088800051545EA16754FEA06164FEAC30343EA0B
:1008980052734FEAC2025FEA1C1CC0D111F4801FD8
:1008A8000BD141EA00014FF000004FF0004CB6E7D1
:1008B80011F4801F04BF01430020B4F1FD0C88BF70
:1008C800BCF5E06F3FF6AFAEB5EB030C04BFB6EB7B
:1008D800020C5FEA500C50F1000041EB045170BD6E
:1008E8000EF0004E4EEA113114EB5C04C2BFD4EB9B
:1008F8000C0541EA045170BD41F480114FF0000E1F
:10090800013C90E645EA060E8DE60CEA135594EA9A
:100918000C0F08BF95EA0C0F3FF43BAF94EA0C0F9D
:100928000AD150EA01347FF434AF95EA0C0F7FF412
:1009380025AF104619462CE795EA0C0F06D152EA66
:1009480003353FF4FDAE1046194622E750EA41064A
:1009580018BF52EA43067FF4C5AE50EA41047FF45B
:100968000DAF52EA43057FF4EBAE12E74A0011D20D
:1009780012F5001211D20DD56FF47873B3EB6252F1
:100988000ED44FEAC12343F0004343EA505323FAFD
:1009980002F070474FF00000704750EA013002D172
:1009A8004FF0FF3070474FF00000704753B94AB915
:1009B800002908BF00281CBF4FF0FF314FF0FF305F
:1009C80000F072B9ADF1080C6DE904CE00F006F83C
:1009D800DDF804E0DDE9022304B070472DE9F047B3
:1009E800089E04468846002B4BD18A42154667D993
:1009F800B2FA82F24AB1C2F1200701FA02F320FAF0
:100A080007F7954047EA030894404FEA154E230C30
:100A1800B8FBFEF71FFA85FC0EFB178843EA08436C
:100A280007FB0CF1994209D9EB1807F1FF3080F068
:100A38001B81994240F21881023F2B445B1AA4B2F1
:100A4800B3FBFEF00EFB103344EA034400FB0CFC3E
:100A5800A44509D92C1900F1FF3380F00781A4457A
:100A680040F2048102382C4440EA0740A4EB0C040D
:100A780000271EB1D4400023C6E900433946BDE82B
:100A8800F0878B4209D9002E00F0EB800027C6E9D9
:100A9800000138463946BDE8F087B3FA83F7002FDE
:100AA80047D18B4202D3824200F2FA80841A61EB6A
:100AB800030301209846002EE0D0C6E90048DDE790
:100AC80002B9FFDEB2FA82F2002A40F08F80491B99
:100AD8004FEA154E1FFA85F80127B1FBFEFC230CDF
:100AE8000EFB1C1143EA014308FB0CF1994207D99C
:100AF800EB180CF1FF3002D2994200F2CD80844607
:100B0800591AA3B2B1FBFEF00EFB101443EA0444D9
:100B180008FB00F8A04507D92C1900F1FF3302D2D1
:100B2800A04500F2B6801846A4EB080440EA0C4041
:100B38009FE7C7F1200CBB4022FA0CFE4EEA030ED9
:100B480001FA07F420FA0CF521FA0CF34FEA1E48D3
:100B58002543B3FBF8F92C0C08FB19331FFA8EFA5E
:100B680044EA034309FB0AF49C4202FA07F200FA3A
:100B780007F10BD91EEB030309F1FF3080F08780E2
:100B88009C4240F28480A9F1020973441B1BADB258
:100B9800B3FBF8F008FB103345EA034400FB0AFAFC
:100BA800A24508D91EEB040400F1FF336BD2A2451D
:100BB80069D90238744440EA0940A0FB0289A4EBD1
:100BC8000A044C45C2464B4654D351D0002E69D036
:100BD800B1EB0A0564EB030404FA0CFCFD40FC408D
:100BE8004CEA0505C6E90054002747E7C2F120038F
:100BF80020FA03F7954001FA02F021FA03F34FEACD
:100C0800154E3843010CB3FBFEF71FFA85F80EFBAF
:100C1800173341EA034107FB08F38B4204FA02F455
:100C280007D9691807F1FF3C2FD28B422DD9023F13
:100C38002944CB1A81B2B3FBFEF00EFB103341EA14
:100C4800034100FB08F38B4207D9691800F1FF3C08
:100C580017D28B4215D902382944C91A40EA0747E6
:100C68003BE73746304609E70746E7E61846FBE61E
:100C78004145ABD2B8EB020A69EB0E0201381346C4
:100C8800A4E76046E9E7184695E76746D1E7814655
:100C98007CE702382C4447E7ACF1020C2B442FE7E1
:100CA800384608E73746E9E6704700BF80B485B0A4
:100CB80000AF78607B6800221A707B6800225A7047
:100CC8007B6800229A667B680022DA667B680022CD
:100CD8001A677B68002283F874200023FB600CE00D
:100CE800FA6813469B0013445B007A681344023386
:100CF80000221A70FB680133FB60FB68092BEFDDEB
:100D080000BF1437BD465DF8047B704780B582B0DC
:100D180000AF786039603B681B78DBB2092B03D1E0
:100D28003B6800221A7006E03B681B78DBB201338F
:100D3800DAB23B681A703B681B78DBB21A46134676
:100D48009B0013445B003A681344023379681846E1
:100D580007F0D9FB00BF0837BD4680BD80B584B019
:100D680000AF78607B68002283F874200023FB7250
:100D78007B68986E7B68D96E7B681A6F07F10B03E6
:100D880000F0F2F8F860FB68012B02D100F0DEF801
:100D980005E0FB7A7A681946F86800F00DF87B6878
:100DA80000229A667B680022DA667B6800221A674E
:100DB80000BF1037BD4680BD90B591B000AFF86058
:100DC8000B467A60FB724FF000034FF00004C7E94E
:100DD8000E34FA6813465B0013449B001846FFF76D
:100DE80039FB03460C461A46234622A1D1E90001E5
:100DF800FFF7D4FC03460C46C7E90E3407F1240379
:100E08001033184697ED0E0B00F010F9024607F163
:100E180010031146184607F076FB07F11003184631
:100E2800FFF7CEF903461A4607F110031344104A98
:100E38001068186092889A80FA7A07F124031033B0
:100E48001946104600F06CF9024607F110031146E6
:100E5800184607F049FB07F1100379681846FFF7B1
:100E680055FF786800F00AF800BF4437BD4690BDCA
:100E78003C85000800000000D012634180B588B0AE
:100E880000AF78600323FB6130E0FB69DBB200212F
:100E9800184600F0DFF9052000F0AAFEFB69C3F14F
:100EA80003037A685278D2B29B1A1A4607F10C03E8
:100EB80010331946104600F033F90346184600F07F
:100EC80048FA0E4800F045FA7968F86900F018F811
:100ED800024613469B0013445B007A6813440233AE
:100EE800184600F036FAFB69013BFB61FB69002BF1
:100EF800CBDA00BF2037BD4680BD00BF448500085F
:100F080080B485B000AF786039603B681B78DBB28D
:100F1800DA1C7B68D31A3A685278D2B29B1AFB6003
:100F280002E0FB680133FB60FB68002BF9DB02E0A1
:100F3800FB68013BFB60FB680A2BF9DCFB68184681
:100F48001437BD465DF8047B7047000080B500AFDC
:100F58000021032000F07EF9024800F0FAF900BFF2
:100F680080BD00BF4885000880B485B000AFF86038
:100F7800B9607A603B60FB68002B15D0BB68002B1A
:100F880012D07B68002B0FD03B687B221A70BA689E
:100F9800FB68D21A7968BB68CB1A1344DB08214A6C
:100FA800A2FB03235B0836E0FB68002B0ED0BB686E
:100FB800002B0BD03B680C221A70BA68FB68D31A56
:100FC8009B08194AA2FB03239B0824E0BB68002B5B
:100FD8000ED07B68002B0BD03B6817221A707A68FA
:100FE800BB68D31A9B08104AA2FB03239B0812E094
:100FF800FB68002B0ED07B68002B0BD03B680D22C2
:101008001A707A68FB68D31ADB08064AA2FB032326
:101018005B0800E0012318461437BD465DF8047BE1
:10102800704700BF19866118310CC33090B587B07E
:1010380000AF87ED020B78604FF00002354BD7E91F
:101048000201FFF781FA03460C4618462146FFF7CE
:101058008DFC03467B617B68013B7B607B680022DB
:101068001A707B69002B0AD17B68043B7B607B6824
:10107800294A1068186012791A717B6846E00023C3
:101088003B611AE07969254BA3FB0123DA08134673
:101098009B0013445B00CA1AD3B27A68013A7A609B
:1010A8003033DAB27B681A707B691C4AA2FB0323CF
:1010B800DB087B613B6901333B613B69012B02DC47
:1010C8007B69002BDED17B68013B7B607B682E222D
:1010D8001A7017E07969114BA3FB0123DA0813464C
:1010E8009B0013445B00CA1AD3B27A68013A7A604B
:1010F8003033DAB27B681A707B69084AA2FB032393
:10110800DB087B617B69002BE4D17B6818461C37C0
:10111800BD4690BD0000594050850008CDCCCCCCD0
:1011280080B483B000AF786039603B68013B3B60B6
:101138003B6800221A707B68002B1ED13B68013B7C
:101148003B603B6830221A7017E07968104BA3FBAC
:101158000123DA0813469B0013445B00CA1AD3B272
:101168003A68013A3A603033DAB23B681A707B6801
:10117800074AA2FB0323DB087B607B68002BE4D1D2
:101188003B6818460C37BD465DF8047B704700BFC6
:10119800CDCCCCCC80B586B002AF0346FB71FB79D1
:1011A80023F00F03FB73FB791B01BB73FB7B43F03D
:1011B8000C03DBB23B72FB7B43F00803DBB27B72B0
:1011C800BB7B43F00C03DBB2BB72BB7B43F0080371
:1011D800DBB2FB7207F108026423009304234E215B
:1011E800034801F049F900BF1037BD4680BD00BF74
:1011F8002C02002080B586B002AF0346FB71FB7954
:1012080023F00F03FB73FB791B01BB73FB7B43F0DC
:101218000D03DBB23B72FB7B43F00903DBB27B724D
:10122800BB7B43F00D03DBB2BB72BB7B43F009030E
:10123800DBB2FB7207F108026423009304234E21FA
:10124800034801F019F900BF1037BD4680BD00BF43
:101258002C02002080B582B000AF03460A46FB711D
:101268001346BB71FB79032B2ED801A252F823F049
:10127800891200089B120008AD120008BF1200086E
:10128800BB79803BDBB25BB263F07F035BB2BB71BF
:101298001AE0BB794033DBB25BB263F07F035BB229
:1012A800BB7111E0BB791433DBB25BB263F07F032F
:1012B8005BB2BB7108E0BB795433DBB25BB263F05D
:1012C8007F035BB2BB7100BFBB791846FFF762FFB3
:1012D80000BF0837BD4680BD80B500AF322000F0A2
:1012E80087FC3020FFF756FF052000F081FC3020F6
:1012F800FFF750FF012000F07BFC3020FFF74AFF8A
:101308000A2000F075FC2020FFF744FF0A2000F0B7
:101318006FFC2820FFF73EFF012000F069FC082041
:10132800FFF738FF012000F063FC0120FFF732FFD0
:10133800012000F05DFC012000F05AFC0620FFF7B8
:1013480029FF012000F054FC0C20FFF723FF00BF09
:1013580080BD80B582B000AF786006E07B685A1C1B
:101368007A601B781846FFF745FF7B681B78002BCF
:10137800F4D100BF0837BD4680BD000080B500AF7E
:1013880000F0C4FB0948FFF791FC00F011F800F0E9
:101398002DF900F077F806F0E9FA04F049FF00F0BB
:1013A8009FF800F0D3F8FFF797FFFEE780020020D0
:1013B80080B594B000AF07F1200330220021184611
:1013C80006F0D2FF07F10C0300221A605A609A60F7
:1013D800DA601A610023BB60284B1B6C274A43F074
:1013E80080531364254B1B6C03F08053BB60BB68B0
:1013F80000237B60224B1B68214A43F4804313601F
:101408001F4B1B6803F480437B607B6801233B62AE
:101418004FF480337B620223BB634FF48003FB638A
:1014280008233B644FF4A8737B640223BB6407233F
:10143800FB6407F12003184602F0B0FC0346002BBA
:1014480001D000F06DF90F23FB6002233B610023FC
:101458007B614FF4A053BB614FF48053FB6107F1EC
:101468000C030521184602F009FF0346002B01D0A2
:1014780000F056F900BF5037BD4680BD0038024025
:101488000070004080B500AF124B134A1A60114B30
:10149800124A5A600F4B00229A600E4B0022DA6003
:1014A8000C4B4FF480421A610A4B00225A61094BD7
:1014B80000229A61074B0022DA61064B00221A6269
:1014C800044800F0A1FE0346002B01D000F028F9E3
:1014D80000BF80BD2C02002000540040A0860100FF
:1014E80080B500AF174B184A1A60164B4FF482723A
:1014F8005A60144B00229A60124B0022DA60114B9A
:1015080000221A610F4B00225A610E4B4FF40072F1
:101518009A610C4B0022DA610A4B00221A62094BCD
:1015280000225A62074B00229A62064B0A22DA62AC
:10153800044803F081F80346002B01D000F0F0F8CE
:1015480000BF80BDF80200200030014080B586B0A1
:1015580000AF07F1080300221A605A609A60DA6047
:101568003B4600221A605A601F4B4FF080421A60B7
:101578001D4B00225A601C4B00229A601A4B4FF0F8
:10158800FF32DA60184B00221A61174B00229A6169
:10159800154803F0B5F80346002B01D000F0C0F859
:1015A8004FF48053BB6007F1080319460E4803F057
:1015B800F6F80346002B01D000F0B2F800233B6098
:1015C80000237B603B461946074803F0D9FA0346D7
:1015D800002B01D000F0A4F8034803F0BCF800BFCA
:1015E8001837BD4680BD00BF5003002080B58AB0C3
:1015F80000AF07F1140300221A605A609A60DA609B
:101608001A6100233B61424B1B6B414A43F0800344
:1016180013633F4B1B6B03F080033B613B69002363
:10162800FB603B4B1B6B3A4A43F001031363384B97
:101638001B6B03F00103FB60FB680023BB60344BAA
:101648001B6B334A43F004031363314B1B6B03F0EA
:101658000403BB60BB6800237B602D4B1B6B2C4ACB
:1016680043F0020313632A4B1B6B03F002037B60F6
:101678007B6801221821274800F088FD00221021EC
:10168800254800F083FD07237B61244BBB610223BF
:10169800FB6107F1140319461E4800F0DDFB18230F
:1016A8007B610123BB610023FB6100233B6207F1DF
:1016B80014031946174800F0CFFB10237B61012360
:1016C800BB610023FB6100233B6207F11403194649
:1016D800114800F0C1FB00220321062000F085FB21
:1016E800062000F09EFB00220221072000F07DFB6F
:1016F800072000F096FB00220121082000F075FB6E
:10170800082000F08EFB00BF2837BD4680BD00BF13
:10171800003802400000024000080240000011109A
:1017280080B500AF00210020FFF794FD0248FFF7C5
:1017380010FE00BF80BD00BF5885000880B483B08C
:1017480000AF00237B60104B5B6C0F4A43F480436F
:1017580053640D4B5B6C03F480437B607B68002310
:101768003B60094B1B6C084A43F080531364064BDB
:101778001B6C03F080533B603B6800BF0C37BD46D1
:101788005DF8047B704700BF0038024080B58AB01E
:1017980000AF786007F1140300221A605A609A605B
:1017A800DA601A617B681B68194A93422BD10023BF
:1017B8003B61184B1B6B174A43F002031363154B2D
:1017C8001B6B03F002033B613B69C0237B6112235F
:1017D800BB610123FB6103233B6204237B6207F1A6
:1017E800140319460C4800F037FB0023FB60094B33
:1017F8001B6C084A43F400131364064B1B6C03F478
:101808000013FB60FB6800BF2837BD4680BD00BFE2
:1018180000540040003802400004024080B58AB0FD
:1018280000AF786007F1140300221A605A609A60CA
:10183800DA601A617B681B68194A93422BD100232E
:101848003B61184B5B6C174A43F480535364154B48
:101858005B6C03F480533B613B690023FB60114BD5
:101868001B6B104A43F0010313630E4B1B6B03F011
:101878000103FB60FB68E0237B610223BB6100235B
:10188800FB6103233B6205237B6207F114031946BE
:10189800054800F0E1FA00BF2837BD4680BD00BF0B
:1018A80000300140003802400000024080B485B09A
:1018B80000AF78607B681B68B3F1804F0DD10023BF
:1018C800FB60094B1B6C084A43F001031364064B89
:1018D8001B6C03F00103FB60FB6800BF1437BD46B7
:1018E8005DF8047B704700BF0038024080B400AF49
:1018F80000BFBD465DF8047B704780B400AFFEE7CB
:1019080080B400AFFEE780B400AFFEE780B400AF5C
:10191800FEE780B400AF00BFBD465DF8047B7047AA
:1019280080B400AF00BFBD465DF8047B704780B44B
:1019380000AF00BFBD465DF8047B704780B500AFBF
:1019480000F036F900BF80BD80B500AF0E4B012214
:101958005A614FF080435B6A0C4A93660B4B012235
:1019680083F87420642000F043F9084B93F874302E
:10197800DBB2012B02D10548FFF7F0F9012000F096
:101988001FFC00BF80BD00BF003C0140800200205A
:1019980080B500AF0E4B02225A614FF080435B6A5C
:1019A8000C4AD3660B4B012283F87420642000F0A4
:1019B8001FF9084B93F87430DBB2012B02D10548AC
:1019C800FFF7CCF9022000F0FBFB00BF80BD00BF91
:1019D800003C01408002002080B500AF0E4B04227D
:1019E8005A614FF080435B6A0C4A13670B4B012224
:1019F80083F87420642000F0FBF8084B93F87430E7
:101A0800DBB2012B02D10548FFF7A8F9042000F04A
:101A1800D7FB00BF80BD00BF003C01408002002012
:101A280080B500AF024801F07EF900BF80BD00BF5D
:101A3800A038002080B584B000AF7860114B1B68D7
:101A4800002B02D10F4B104A1A600E4B1B68FB602B
:101A58000C4B1A687B6813446A46934207D906F010
:101A680049FC02460C2313604FF0FF3306E0054B98
:101A78001A687B681344034A1360FB6818461037DA
:101A8800BD4680BD10020020B03C002080B400AFED
:101A9800084BD3F88830074A43F47003C2F88830FB
:101AA800044B4FF000629A6000BFBD465DF8047BAE
:101AB800704700BF00ED00E0DFF834D0002103E0FC
:101AC8000C4B5B58435004310B480C4B42189A425C
:101AD800F6D30B4A02E0002342F8043B094B9A4232
:101AE800F9D3FFF7D3FF06F00BFCFFF747FC70476D
:101AF80000000220D885000800000020F401002022
:101B0800F4010020AC3C0020FEE7000080B500AFE7
:101B18000E4B1B680D4A43F4007313600B4B1B6894
:101B28000A4A43F480631360084B1B68074A43F46E
:101B380080731360032000F04DF9002000F008F8CE
:101B4800FFF7FCFD0023184680BD00BF003C0240A3
:101B580080B582B000AF7860124B1A68124B1B78C0
:101B680019464FF47A73B3FBF1F3B2FBF3F318465B
:101B780000F065F90346002B01D001230EE07B68D5
:101B88000F2B0AD8002279684FF0FF3000F02DF9AA
:101B9800064A7B681360002300E0012318460837D3
:101BA800BD4680BD00000020080000200400002081
:101BB80080B400AF064B1B781A46064B1B681344CB
:101BC800044A136000BFBD465DF8047B704700BF40
:101BD800080000209003002080B400AF034B1B686E
:101BE8001846BD465DF8047B704700BF900300208F
:101BF80080B584B000AF7860FFF7EEFFB8607B680F
:101C0800FB60FB68B3F1FF3F05D0094B1B781A4610
:101C1800FB681344FB6000BFFFF7DEFF0246BB68AA
:101C2800D31AFA689A42F7D800BF1037BD4680BD6C
:101C38000800002080B485B000AF78607B6803F0AE
:101C48000703FB600C4BDB68BB60BA684FF6FF0309
:101C58001340BB60FB681A02BB68134343F0BF63C1
:101C680043F40033BB60044ABB68D36000BF143739
:101C7800BD465DF8047B704700ED00E080B400AF1E
:101C8800044BDB681B0A03F007031846BD465DF8E2
:101C9800047B704700ED00E080B483B000AF0346DA
:101CA800FB7197F90730002B0BDBFB7903F01F0260
:101CB800074997F907305B09012000FA02F241F859
:101CC800232000BF0C37BD465DF8047B704700BF7A
:101CD80000E100E080B483B000AF03463960FB71D7
:101CE80097F90730002B0ADB3B68DAB20C4997F901
:101CF80007301201D2B20B4483F800230AE03B6894
:101D0800DAB20849FB7903F00F03043B1201D2B29F
:101D18000B441A7600BF0C37BD465DF8047B70474C
:101D280000E100E000ED00E080B489B000AFF860A9
:101D3800B9607A60FB6803F00703FB61FB69C3F1D4
:101D48000703042B28BF0423BB61FB690433062B5C
:101D580002D9FB69033B00E000237B614FF0FF32AF
:101D6800BB6902FA03F3DA43BB681A407B699A40FD
:101D78004FF0FF317B6901FA03F3D9437B680B40CD
:101D8800134318462437BD465DF8047B70470000AE
:101D980080B582B000AF78607B68013BB3F1807F8B
:101DA80001D301230FE00A4A7B68013B53600F21EE
:101DB8004FF0FF30FFF78EFF054B00229A60044B6F
:101DC80007221A60002318460837BD4680BD00BFA9
:101DD80010E000E080B582B000AF78607868FFF767
:101DE80029FF00BF0837BD4680BD80B586B000AF6B
:101DF8000346B9607A60FB7300237B61FFF73EFFFF
:101E080078617A68B9687869FFF78EFF024697F9B2
:101E18000F3011461846FFF75DFF00BF1837BD4663
:101E280080BD80B582B000AF0346FB7197F90730DB
:101E38001846FFF731FF00BF0837BD4680BD80B5A3
:101E480082B000AF78607868FFF7A2FF03461846B3
:101E58000837BD4680BD000080B489B000AF786007
:101E6800396000237B6100233B610023BB610023B1
:101E7800FB616BE10122FB6902FA03F37B613B68BA
:101E88001B687A6913403B613A697B699A4240F062
:101E98005A813B685B68012B0BD03B685B68022B5F
:101EA80007D03B685B68112B03D03B685B68122B3B
:101EB80030D17B689B68BB61FB695B00032202FA37
:101EC80003F3DB43BA691340BB613B68DA68FB691B
:101ED8005B0002FA03F3BA691343BB617B68BA6912
:101EE8009A607B685B68BB610122FB6902FA03F3B5
:101EF800DB43BA691340BB613B685B681B0903F0AD
:101F08000102FB6902FA03F3BA691343BB617B68F8
:101F1800BA695A607B68DB68BB61FB695B000322B6
:101F280002FA03F3DB43BA691340BB613B689A6862
:101F3800FB695B0002FA03F3BA691343BB617B6870
:101F4800BA69DA603B685B68022B03D03B685B6860
:101F5800122B23D1FB69DA087B68083253F8223048
:101F6800BB61FB6903F007039B000F2202FA03F32E
:101F7800DB43BA691340BB613B681A69FB6903F02C
:101F880007039B0002FA03F3BA691343BB61FB69B9
:101F9800DA087B680832B96943F822107B681B6845
:101FA800BB61FB695B00032202FA03F3DB43BA69F6
:101FB8001340BB613B685B6803F00302FB695B008D
:101FC80002FA03F3BA691343BB617B68BA691A6002
:101FD8003B685B6803F08053002B00F0B48000235B
:101FE800FB605F4B5B6C5E4A43F4804353645C4B1D
:101FF8005B6C03F48043FB60FB685A4AFB699B08EF
:10200800023352F82330BB61FB6903F003039B00E2
:102018000F2202FA03F3DB43BA691340BB617B6802
:10202800514A93422BD07B68504A934225D07B6813
:102038004F4A93421FD07B684E4A934219D07B681F
:102048004D4A934213D07B684C4A93420DD07B682B
:102058004B4A934207D07B684A4A934201D10723EF
:102068000EE008230CE006230AE0052308E0042319
:1020780006E0032304E0022302E0012300E000233A
:10208800FA6902F0030292009340BA691343BB61F4
:102098003449FB699B080233BA6941F823203A4B5B
:1020A8001B68BB613B69DB43BA691340BB613B6892
:1020B8005B6803F48033002B03D0BA693B69134390
:1020C800BB61314ABB6913602F4B5B68BB613B69DD
:1020D800DB43BA691340BB613B685B6803F40033B8
:1020E800002B03D0BA693B691343BB61264ABB691D
:1020F8005360254B9B68BB613B69DB43BA6913405E
:10210800BB613B685B6803F48013002B03D0BA699A
:102118003B691343BB611C4ABB6993601A4BDB687C
:10212800BB613B69DB43BA691340BB613B685B68D1
:1021380003F40013002B03D0BA693B691343BB6156
:10214800114ABB69D360FB690133FB61FB690F2B43
:102158007FF690AE00BF2437BD465DF8047B70471C
:1021680000380240003801400000024000040240EC
:1021780000080240000C0240001002400014024017
:1021880000180240001C0240003C014080B483B0AB
:1021980000AF78600B467B8013467B707B78002B02
:1021A80003D07A887B689A6103E07B881A047B688D
:1021B8009A6100BF0C37BD465DF8047B704700008C
:1021C80080B582B000AF0346FB80084B5A69FB8894
:1021D8001340002B06D0054AFB885361FB8818463C
:1021E80000F006F800BF0837BD4680BD003C01403E
:1021F80080B483B000AF0346FB8000BF0C37BD46F8
:102208005DF8047B7047000080B584B000AF78604B
:102218007B68002B01D101231FE17B6893F83D30D7
:10222800DBB2002B06D17B68002283F83C2078685B
:10223800FFF7ACFA7B68242283F83D207B681B6893
:102248001A687B681B6822F001021A607B681B68A9
:102258001A687B681B6842F400421A607B681B6836
:102268001A687B681B6822F400421A6002F0D0F9F1
:10227800F8607B685B687B4A934207D8FB687A4AB8
:10228800934294BF01230023DBB206E0FB68774A40
:10229800934294BF01230023DBB2002B01D001231A
:1022A800DBE0FB68724AA2FB03239B0CBB607B68E4
:1022B8001B685B6823F03F017B681B68BA680A43A8
:1022C8005A607B681B681B6A23F03F017B685B6868
:1022D800644A934202D8BB68013309E0BB684FF4F3
:1022E800967202FB03F3634AA2FB03239B090133A3
:1022F8007A6812680B4313627B681B68DB6923F4F6
:102308004F4222F0FF027B685B6856498B420DD82A
:10231800FB68591E7B685B685B00B1FBF3F3013314
:10232800C3F30B03042B38BF04234FE07B689B687F
:10233800002B11D1FB68581E7B6859680B465B005F
:102348000B44B0FBF3F30133C3F30B03002B0CBFB7
:1023580001230023DBB212E0FB68581E7B68596832
:102368000B469B000B4499000B44B0FBF3F301337D
:10237800C3F30B03002B0CBF01230023DBB2002B9C
:1023880001D0012322E07B689B68002B0ED1FB68FB
:10239800581E7B6859680B465B000B44B0FBF3F38F
:1023A8000133C3F30B0343F400430FE0FB68581EEB
:1023B8007B6859680B469B000B4499000B44B0FBA3
:1023C800F3F30133C3F30B0343F44043796809681B
:1023D8001343CB617B681B681B6823F0C0017B68D3
:1023E800DA697B681B6A1A437B681B680A431A60B0
:1023F8007B681B689B6823F4034323F0FF037A6818
:1024080011697A68D26811437A6812680B4393603D
:102418007B681B68DB6823F0FF017B685A697B686F
:102428009B691A437B681B680A43DA607B681B68F0
:102438001A687B681B6842F001021A607B680022F8
:102448001A647B68202283F83D207B6800221A6387
:102458007B68002283F83E20002318461037BD46CB
:1024680080BD00BFA08601007F841E00FF083D00DC
:1024780083DE1B43D34D621080B588B002AFF8608D
:102488007A601A460B467B8113463B81FFF7A4FB13
:102498007861FB6893F83D30DBB2202B40F0E08098
:1024A8007B690093192301227049F86800F064F9E8
:1024B8000346002B01D00223D3E0FB6893F83C309D
:1024C800012B01D10223CCE0FB68012283F83C20D8
:1024D800FB681B681B6803F00103012B07D0FB682E
:1024E8001B681A68FB681B6842F001021A60FB68E7
:1024F8001B681A68FB681B6822F400621A60FB6894
:10250800212283F83D20FB68102283F83E20FB68D7
:1025180000221A64FB687A685A62FB683A895A850D
:10252800FB685B8D9AB2FB681A85FB68504ADA62D1
:1025380079897B693A6AF86800F09CF80346002BB1
:1025480001D001238DE000233B61FB681B685B69B8
:102558003B61FB681B689B693B613B6966E07A6984
:10256800396AF86800F0DEF90346002B0DD0FB68E5
:102578001B6C042B07D1FB681B681A68FB681B6877
:1025880042F400721A6001236BE0FB685B6A1A78F8
:10259800FB681B681A61FB685B6A5A1CFB685A6215
:1025A800FB685B8D9BB2013B9AB2FB685A85FB685E
:1025B8001B8D013B9AB2FB681A85FB681B685B6937
:1025C80003F00403042B1BD1FB681B8D002B17D0D1
:1025D800FB685B6A1A78FB681B681A61FB685B6AB0
:1025E8005A1CFB685A62FB685B8D9BB2013B9AB22E
:1025F800FB685A85FB681B8D013B9AB2FB681A85FC
:102608007A69396AF86800F0CEF90346002B0DD0D4
:10261800FB681B6C042B07D1FB681B681A68FB68F6
:102628001B6842F400721A6001231AE0FB681B8DD4
:10263800002B94D1FB681B681A68FB681B6842F47E
:1026480000721A60FB68202283F83D20FB68002294
:1026580083F83E20FB68002283F83C20002300E03A
:10266800022318461837BD4680BD00BF020010007F
:102678000000FFFF80B588B002AFF8607A603B6069
:102688000B467B81FB68DB6A7B617B69082B06D084
:102698007B69012B03D07B6913F5803F08D1FB6868
:1026A8001B681A68FB681B6842F480721A600BE0AA
:1026B800FB681B6B122B07D1FB681B681A68FB6849
:1026C8001B6842F480721A603B6800937B680022A2
:1026D8004FF00111F86800F04FF80346002B0CD0BA
:1026E800FB681B681B6803F48073002B03D0FB682E
:1026F8004FF400721A64032335E0FB681B69B3F5D5
:10270800804F08D17B89DBB21A46FB681B6802F050
:10271800FE021A611BE07B89DB11DBB203F00603C2
:10272800DBB263F00F03DAB2FB681B681A613B681F
:102738007A680F49F86800F076F80346002B01D054
:10274800012310E07B89DAB2FB681B681A613B68D9
:102758007A680849F86800F066F80346002B01D04B
:10276800012300E0002318461837BD4680BD00BF8E
:10277800080001000200010080B584B000AFF860D5
:10278800B9603B601346FB7125E03B68B3F1FF3F3E
:1027980021D0FFF721FA0246BB69D31A3A689A4258
:1027A80002D33B68002B16D1FB6800221A63FB6832
:1027B800202283F83D20FB68002283F83E20FB6836
:1027C8001B6C43F02002FB681A64FB68002283F844
:1027D8003C20012323E0BB681B0CDBB2012B0DD18D
:1027E800FB681B685B69DA43BB6813409BB2002B2C
:1027F8000CBF01230023DBB21A460CE0FB681B6800
:102808009B69DA43BB6813409BB2002B0CBF0123C2
:102818000023DBB21A46FB799A42B6D00023184649
:102828001037BD4680BD80B584B000AFF860B96090
:102838007A603B6051E0FB681B685B6903F4806366
:10284800B3F5806F23D1FB681B681A68FB681B68A7
:1028580042F400721A60FB681B686FF480625A6168
:10286800FB6800221A63FB68202283F83D20FB687E
:10287800002283F83E20FB681B6C43F00402FB68CF
:102888001A64FB68002283F83C20012346E07B6839
:10289800B3F1FF3F21D0FFF79FF902463B68D31AF7
:1028A8007A689A4202D37B68002B16D1FB68002213
:1028B8001A63FB68202283F83D20FB68002283F816
:1028C8003E20FB681B6C43F02002FB681A64FB681F
:1028D800002283F83C20012320E0BB681B0CDBB2FC
:1028E800012B0CD1FB681B685B69DA43BB6813409A
:1028F8009BB2002B14BF01230023DBB20BE0FB6863
:102908001B689B69DA43BB6813409BB2002B14BF5A
:1029180001230023DBB2002B8DD10023184610378A
:10292800BD4680BD80B584B000AFF860B9607A60FC
:102938002DE0F86800F078F80346002B01D0012359
:102948002DE0BB68B3F1FF3F21D0FFF745F9024600
:102958007B68D31ABA689A4202D3BB68002B16D197
:10296800FB6800221A63FB68202283F83D20FB687D
:10297800002283F83E20FB681B6C43F02002FB68B2
:102988001A64FB68002283F83C20012307E0FB68F7
:102998001B685B6903F08003802BCAD100231846AB
:1029A8001037BD4680BD80B584B000AFF860B9600F
:1029B8007A602DE0F86800F037F80346002B01D064
:1029C80001232DE0BB68B3F1FF3F21D0FFF704F9E5
:1029D80002467B68D31ABA689A4202D3BB68002BB6
:1029E80016D1FB6800221A63FB68202283F83D2079
:1029F800FB68002283F83E20FB681B6C43F0200232
:102A0800FB681A64FB68002283F83C20012307E076
:102A1800FB681B685B6903F00403042BCAD100231D
:102A280018461037BD4680BD80B483B000AF7860CB
:102A38007B681B685B6903F48063B3F5806F1BD107
:102A48007B681B686FF480625A617B6800221A6396
:102A58007B68202283F83D207B68002283F83E2093
:102A68007B681B6C43F004027B681A647B68002255
:102A780083F83C20012300E0002318460C37BD46AC
:102A88005DF8047B7047F0B58FB00AAF78607B685B
:102A9800002B01D101230FE17B681B68BB607B68B9
:102AA80093F8BD33DBB2002B06D17B68002283F894
:102AB800BC23786805F01EF97B68032283F8BD23E0
:102AC800BB68DB6B03F48073002B02D17B680022A8
:102AD8001A617B681B68184602F0E3F97B681B687B
:102AE8003B607E686D4606F110040FCC0FC50FCC15
:102AF8000FC594E8030085E80300331D0ECB386842
:102B080002F0BAF80346002B05D07B68022283F84E
:102B1800BD230123D0E07B681B680021184602F022
:102B2800D1F90023FB734AE0FA7B79681346DB008E
:102B38009B1A9B000B443D3301221A70FA7B79687B
:102B48001346DB009B1A9B000B443C33FA7B1A703C
:102B5800FA7BFB7B98B279681346DB009B1A9B00D3
:102B68000B44423302461A80FA7B79681346DB002D
:102B78009B1A9B000B443F3300221A70FA7B79683A
:102B88001346DB009B1A9B000B44443300221A6057
:102B9800FA7B79681346DB009B1A9B000B44483389
:102BA80000221A60FA7B79681346DB009B1A9B00A7
:102BB8000B44503300221A60FB7B0133FB73FA7B12
:102BC8007B685B689A42AFD30023FB7344E0FA7BCF
:102BD80079681346DB009B1A9B000B4403F2FD1334
:102BE80000221A70FA7B79681346DB009B1A9B0057
:102BF8000B4403F5FE73FA7B1A70FA7B7968134667
:102C0800DB009B1A9B000B4403F2FF1300221A708F
:102C1800FA7B79681346DB009B1A9B000B4403F58B
:102C2800017300221A60FA7B79681346DB009B1A4D
:102C38009B000B4403F5027300221A60FA7B796843
:102C48001346DB009B1A9B000B4403F50473002218
:102C58001A60FB7B0133FB73FA7B7B685B689A42E3
:102C6800B5D37B681B683B607E686D4606F110042F
:102C78000FCC0FC50FCC0FC594E8030085E80300FF
:102C8800331D0ECB386802F047F90346002B05D0F8
:102C98007B68022283F8BD2301230DE07B680022B4
:102CA80083F838207B68012283F8BD237B681B6882
:102CB800184603F03CF9002318461437BD46F0BD0A
:102CC80080B584B000AF78607B681B68FB607B6868
:102CD80093F8BC33012B01D1022320E07B68012249
:102CE80083F8BC237B689B6A012B09D17B689B69AD
:102CF800012B05D0FB689B6B43F48032FB689A6319
:102D08007B681B68184603F0FAF87B681B6818464E
:102D180002F0B6F87B68002283F8BC23002318462B
:102D28001037BD4680BD90B58DB000AF78607B6828
:102D38001B683B623B6AFB617B681B68184603F0B3
:102D4800A1F90346002B40F08E837B681B68184668
:102D580003F005F90346002B00F084837B681B68A9
:102D6800184603F0FCF8034603F00203022B07D1D0
:102D78007B681B685A697B681B6802F002025A610B
:102D88007B681B68184603F0EAF8034603F400233F
:102D9800B3F5002F7BD100237B627B681B68184644
:102DA80003F0F0F8B8626FE0BB6A03F00103002B90
:102DB80064D07B681B687A6AD2B21146184603F061
:102DC80015F9B861BB6903F00103002B0CD07B6ACD
:102DD8005A01FB69134403F530631A4601239360D3
:102DE800796A786800F00EFEBB6903F00803002BCF
:102DF8000CD0796A786800F00DFF7B6A5A01FB698C
:102E0800134403F530631A4608239360BB6903F043
:102E18001003002B08D07B6A5A01FB69134403F5A1
:102E280030631A4610239360BB6903F02003002B1C
:102E380015D07B681B69012B08D17B6818687B68F3
:102E480003F571731A46012103F060F97B6A5A0190
:102E5800FB69134403F530631A4620239360BB696A
:102E680003F40053002B09D07B6A5A01FB69134411
:102E780003F530631A464FF4005393607B6A0133BD
:102E88007B62BB6A5B08BB62BB6A002B8CD17B6828
:102E98001B68184603F063F8034603F48023B3F570
:102EA800802F40F0C4807B681B68184603F084F8C4
:102EB800B86200237B62B6E0BB6A03F00103002B13
:102EC80000F0AB807B681B687A6AD2B2114618465C
:102ED80003F0AAF8B861BB6903F00103002B5BD0CB
:102EE8007B6A03F00F03012202FA03F37B61FB699B
:102EF80003F500635A6B7B69DB43F96901F50061EF
:102F080013404B637B6A5A01FB69134403F5106352
:102F18001A46012393607B681B69012B1BD17968D2
:102F28007A6A1346DB009B1A9B000B4448331968E6
:102F380078687A6A1346DB009B1A9B000344443383
:102F48001B68194478687A6A1346DB009B1A9B0051
:102F58000344483319607B6ADBB21946786804F089
:102F68004AFF7B681B69012B16D17B6A002B13D1A2
:102F780079687A6A1346DB009B1A9B000B4450332E
:102F88001B68002B08D17B6818687B6803F5717390
:102F98001A46012103F0BAF8BB6903F00803002BB5
:102FA80008D07B6A5A01FB69134403F510631A467B
:102FB80008239360BB6903F01003002B08D07B6AD9
:102FC8005A01FB69134403F510631A4610239360F2
:102FD800BB6903F04003002B08D07B6A5A01FB69E8
:102FE800134403F510631A4640239360BB6903F04A
:102FF8000203002B08D07B6A5A01FB69134403F5CE
:1030080010631A4602239360BB6903F08003002B08
:1030180003D0796A786800F067FC7B6A01337B62C9
:10302800BB6A5B08BB62BB6A002B7FF445AF7B6859
:103038001B68184602F093FF034603F00043B3F100
:10304800004F22D1FB6903F500635B68FA6902F55A
:10305800006223F0010353607B6893F8F433012B7B
:1030680008D17B68002283F8F4230021786800F0F7
:1030780089FE02E0786804F035FF7B681B685A69AE
:103088007B681B6802F000425A617B681B6818461F
:1030980002F065FF034603F40063B3F5006F12D135
:1030A800FB6903F500639B6803F00103012B02D160
:1030B800786804F0F1FE7B681B685A697B681B68B6
:1030C80002F400625A617B681B68184602F047FFE9
:1030D800034603F48053B3F5805F40F0A780FB6993
:1030E80003F500635B68FA6902F5006223F00103E7
:1030F80053607B681B681021184602F07FF8002394
:10310800FB6236E0FB6A5A01FB69134403F510635E
:103118001A464FF67F339360FB6A5A01FB691344E2
:1031280003F510631B68FA6A5101FA690A4402F54B
:10313800106223F400131360FB6A5A01FB691344FD
:1031480003F530631A464FF67F339360FB6A5A01E2
:10315800FB69134403F530631B68FA6A5101FA6985
:103168000A4402F5306223F400131360FB6A01334A
:10317800FB627B685B68FA6A9A42C3D3FB6903F512
:103188000063DB69FA6902F5006243F00113D36159
:103198007B681B6B002B16D0FB6903F50063D3F823
:1031A8008430FA6902F5006243F00B03C2F88430F8
:1031B800FB6903F500635B6CFA6902F5006243F092
:1031C8000B03536415E0FB6903F500635B69FA6957
:1031D80002F5006243F4005343F02B035361FB698B
:1031E80003F500631B69FA6902F5006243F00B03FB
:1031F8001361FB6903F500631B68FA6902F5006255
:1032080023F4FE6313607B6818687B681B69D9B276
:103218007B6803F571731A4602F078FF7B681B68B8
:103228005A697B681B6802F480525A617B681B6884
:10323800184602F094FE034603F40053B3F5005F0A
:1032480024D17B681B68184602F02AFF7B681B683C
:10325800184602F034F803461A467B68DA607B6841
:103268001C6801F0C9F901467B68DB68DBB21A46C5
:10327800204601F063FD786804F0E5FD7B681B6873
:103288005A697B681B6802F400525A617B681B68A4
:10329800184602F064FE034603F01003102B61D1B8
:1032A8007B681B689A697B681B6822F010029A6128
:1032B8003B6A1B6A3B613B6903F00F021346DB0064
:1032C8009B1A9B0003F5FC737A6813440433FB6074
:1032D8003B695B0C03F00F03022B24D13A6947F6D4
:1032E800F0731340002B35D0FB68D9683B691B0984
:1032F8009BB2C3F30A039BB21A46386A02F0DCFC9D
:10330800FB68DA683B691B09C3F30A031A44FB68C4
:10331800DA60FB689A693B691B09C3F30A031A441C
:10332800FB689A6116E03B695B0C03F00F03062B00
:1033380010D17B6803F5717308221946386A02F0C8
:10334800BBFCFB689A693B691B09C3F30A031A446F
:10335800FB689A617B681B689A697B681B6842F006
:1033680010029A617B681B68184602F0F8FD034654
:1033780003F00803082B0AD1786804F056FD7B682F
:103388001B685A697B681B6802F008025A617B68EF
:103398001B68184602F0E3FD034603F48013B3F5F7
:1033A800801F0FD100237B627B6ADBB219467868E5
:1033B80004F0B8FD7B681B685A697B681B6802F4D7
:1033C80080125A617B681B68184602F0C8FD0346E4
:1033D80003F40013B3F5001F0FD100237B627B6A4F
:1033E800DBB21946786804F08BFD7B681B685A6964
:1033F8007B681B6802F400125A617B681B681846D8
:1034080002F0ADFD034603F08043B3F1804F0AD1CB
:10341800786804F099FD7B681B685A697B681B68AB
:1034280002F080425A617B681B68184602F097FDDB
:10343800034603F00403042B15D17B681B685B6803
:103448003B613B6903F00403002B02D0786804F069
:1034580089FD7B681B6859687B681B683A690A4361
:103468005A6000E000BF3437BD4690BD80B582B0D9
:1034780000AF78600B46FB707B6893F8BC33012B78
:1034880001D1022313E07B68012283F8BC237B6807
:10349800FA7883F838207B681B68FA781146184652
:1034A80002F007FD7B68002283F8BC23002318463E
:1034B8000837BD4680BD80B584B000AF7860084647
:1034C80011461A460346FB700B463B801346BB70F9
:1034D8000023FB7297F90330002B0FDAFB7803F017
:1034E8000F021346DB009B1A9B0038337A6813449B
:1034F8000433FB60FB6801225A700FE0FB7803F08D
:103508000F021346DB009B1A9B0003F5FC737A68D5
:1035180013440433FB60FB6800225A70FB7803F005
:103528000F03DAB2FB681A703A88FB689A60FB6886
:10353800BA78DA70FB685B78002B04D0FB681B78DC
:103548009AB2FB68DA80BB78022B02D1FB680022B2
:103558001A717B6893F8BC33012B01D102230EE06A
:103568007B68012283F8BC237B681B68F9681846CE
:1035780001F0CAFE7B68002283F8BC23FB7A184658
:103588001037BD4680BD80B584B000AF78600B466B
:10359800FB7097F90330002B0FDAFB7803F00F026A
:1035A8001346DB009B1A9B0038337A6813440433B4
:1035B800FB60FB6801225A700FE0FB7803F00F02F2
:1035C8001346DB009B1A9B0003F5FC737A681344CF
:1035D8000433FB60FB6800225A70FB7803F00F038A
:1035E800DAB2FB681A707B6893F8BC33012B01D1FF
:1035F80002230EE07B68012283F8BC237B681B68EA
:10360800F968184601F008FF7B68002283F8BC239C
:10361800002318461037BD4680BD80B586B000AF80
:10362800F8607A603B600B46FB72FB7A03F00F028E
:103638001346DB009B1A9B0003F5FC73FA681344DE
:1036480004337B617B697A68DA607B693A685A611E
:103658007B6900229A617B6900225A70FB7A03F029
:103668000F03DAB27B691A70FB681B69012B02D160
:103678007A687B691A61FB7A03F00F03002B09D182
:10368800FB681868FB681B69DBB21A46796902F0A7
:103698008BF908E0FB681868FB681B69DBB21A46FF
:1036A800796901F03DFF002318461837BD4680BDF3
:1036B80080B483B000AF78600B46FB70FB7803F0F2
:1036C8000F0279681346DB009B1A9B000B4403F535
:1036D80005731B6818460C37BD465DF8047B7047B8
:1036E80080B586B000AFF8607A603B600B46FB722D
:1036F800FB7A03F00F021346DB009B1A9B0038335A
:10370800FA68134404337B617B697A68DA607B6901
:103718003A685A617B6900229A617B6901225A7072
:10372800FB7A03F00F03DAB27B691A70FB681B6936
:10373800012B02D17A687B691A61FB7A03F00F03C7
:10374800002B09D1FB681868FB681B69DBB21A46B5
:10375800796902F029F908E0FB681868FB681B69B9
:10376800DBB21A46796901F0DBFE002318461837E8
:10377800BD4680BD80B584B000AF78600B46FB7055
:10378800FB7803F00F027B685B689A4201D901233A
:1037980050E097F90330002B0FDAFB7803F00F02A3
:1037A8001346DB009B1A9B0038337A6813440433B2
:1037B800FB60FB6801225A700DE0FA781346DB00C3
:1037C8009B1A9B0003F5FC737A6813440433FB606F
:1037D800FB6800225A70FB6801229A70FB7803F09C
:1037E8000F03DAB2FB681A707B6893F8BC33012BBD
:1037F80001D102231EE07B68012283F8BC237B6889
:103808001B68F968184602F080FAFB7803F00F038A
:10381800002B0AD17B6818687B681B69D9B27B6862
:1038280003F571731A4602F071FC7B68002283F875
:10383800BC23002318461037BD4680BD80B584B030
:1038480000AF78600B46FB70FB7803F00F027B68D3
:103858005B689A4201D9012342E097F90330002BB3
:103868000FDAFB7803F00F021346DB009B1A9B006C
:1038780038337A6813440433FB60FB6801225A70BA
:103888000FE0FB7803F00F021346DB009B1A9B0046
:1038980003F5FC737A6813440433FB60FB68002269
:1038A8005A70FB6800229A70FB7803F00F03DAB2B3
:1038B800FB681A707B6893F8BC33012B01D1022393
:1038C8000EE07B68012283F8BC237B681B68F968DB
:1038D800184602F088FA7B68002283F8BC2300238C
:1038E80018461037BD4680BD80B58AB002AF7860F3
:1038F80039607B681B687B617B693B613A6813466A
:10390800DB009B1A9B0038337A6813440433FB604E
:10391800FB689A69FB685B699A4201D901236CE0EC
:10392800FB685A69FB689B69D31AFB61FB689B6853
:10393800FA699A4202D9FB689B68FB61FB69033309
:103948009B08BB612BE0FB685A69FB689B69D31A2B
:10395800FB61FB689B68FA699A4202D9FB689B681D
:10396800FB61FB6903339B08BB61FB68D9683B6853
:10397800DAB2FB6998B27B681B69DBB20093034635
:10398800786902F064F9FB68DA68FB691A44FB6835
:10399800DA60FB689A69FB691A44FB689A613B68BC
:1039A8005A013B69134403F510639B699BB2BA69DA
:1039B8009A4209D8FB689A69FB685B699A4203D204
:1039C800FB685B69002BBED1FB685A69FB689B6981
:1039D8009A4211D83B6803F00F03012202FA03F35D
:1039E800BB603B6903F500635A6BBB68DB4339690D
:1039F80001F5006113404B63002318462037BD468C
:103A080080BD000080B586B000AF786039607B6803
:103A18001B687B617B693B617B693C3304331B68B2
:103A2800FB603B685A013B69134403F530639B68AC
:103A3800BB607B681B69012B40F0B380BB6803F057
:103A48000803002B28D0FB68704A93420ED9BB6844
:103A580003F40043002B09D03B685A013B69134427
:103A680003F530631A464FF400439360786804F016
:103A780095F97B6818687B6803F571731A4601210C
:103A880002F044FB3B685A013B69134403F5306379
:103A98001A4608239360B3E0BB6803F02003002BA9
:103AA80009D03B685A013B69134403F530631A4651
:103AB80020239360A4E0BB6803F02803002B40F0A8
:103AC8009F80FB68514A93420FD9BB6803F40043B7
:103AD800002B0AD03B685A013B69134403F5306355
:103AE8001A464FF4004393608AE079683A681346AF
:103AF800DB009B1A9B000B4403F501731A683B68B3
:103B080059013B690B4403F530631B69C3F3120386
:103B1800D11A78683A681346DB009B1A9B00034465
:103B280003F50573196079683A681346DB009B1A38
:103B38009B000B4403F50273196878683A681346CA
:103B4800DB009B1A9B00034403F501731B681944AF
:103B580078683A681346DB009B1A9B00034403F518
:103B6800027319603B68DBB21946786804F028F9DB
:103B78003B68002B44D179683A681346DB009B1AEE
:103B88009B000B4403F504731B68002B38D17B683A
:103B980018687B6803F571731A46012102F0B6FABA
:103BA8002EE0FB681A4A934224D1BB6803F4004311
:103BB800002B0AD03B685A013B69134403F5306374
:103BC8001A464FF4004393601AE0BB6803F02003E1
:103BD800002B08D03B685A013B69134403F5306356
:103BE8001A46202393603B68DBB21946786804F0D4
:103BF800E7F805E03B68DBB21946786804F0E0F8BE
:103C0800002318461837BD4680BD00BF0A30544F00
:103C18000A31544F80B586B000AF786039607B6850
:103C28001B687B617B693B617B693C3304331B68A0
:103C3800FB603B685A013B69134403F530639B689A
:103C4800BB607B681B69012B13D1FB681F4A934239
:103C580022D9BB6803F40043002B1DD03B685A01EE
:103C68003B69134403F530631A464FF400439360ED
:103C780012E0FB68164A93420ED1BB6803F4004376
:103C8800002B09D03B685A013B69134403F53063A4
:103C98001A464FF400439360786804F07FF8FB6895
:103CA8000A4A93420CD97B681B69012B08D17B68AF
:103CB80018687B6803F571731A46012102F026FA29
:103CC800002318461837BD4680BD00BF0A30544F40
:103CD8000A31544F80B485B000AF78600B46FB7052
:103CE80013463B807B681B685B6ABB60FB78002BD4
:103CF80007D13B8819047B681B68BA680A439A6233
:103D080028E07B681B689B6A1B0CBA681344BB607D
:103D18000023FB730DE07B681A68FB7B40339B0034
:103D280013445B681B0CBA681344BB60FB7B01330C
:103D3800FB73FA7BFB78013B9A42ECD33B8818046F
:103D48007B681968FB78013BBA68024340339B00E3
:103D58000B445A60002318461437BD465DF8047BAF
:103D6800704780B483B000AF78600B467B807B6877
:103D78001B687A885A62002318460C37BD465DF8DE
:103D8800047B704780B483B000AF78600B46FB704B
:103D980000BF0C37BD465DF8047B704780B586B020
:103DA80000AF78607B68002B01D101235BE27B6860
:103DB8001B6803F00103002B75D0A34B9B6803F02D
:103DC8000C03042B0CD0A04B9B6803F00C03082BAE
:103DD80012D19D4B5B6803F48003B3F5800F0BD1C0
:103DE800994B1B6803F40033002B5BD07B685B683E
:103DF800002B57D1012336E27B685B68B3F5803F1F
:103E080006D1914B1B68904A43F4803313601DE040
:103E18007B685B68B3F5A02F0CD18B4B1B688A4A73
:103E280043F480231360884B1B68874A43F480332C
:103E380013600BE0844B1B68834A23F480331360C0
:103E4800814B1B68804A23F4802313607B685B687E
:103E5800002B13D0FDF7C0FE386108E0FDF7BCFE6B
:103E680002463B69D31A642B01D90323FBE1764B45
:103E78001B6803F40033002BF0D014E0FDF7ACFE10
:103E8800386108E0FDF7A8FE02463B69D31A642BA7
:103E980001D90323E7E16C4B1B6803F40033002BC3
:103EA800F0D100E000BF7B681B6803F00203002B21
:103EB80063D0654B9B6803F00C03002B0BD0624B5F
:103EC8009B6803F00C03082B1CD15F4B5B6803F461
:103ED8008003002B16D15C4B1B6803F00203002BF8
:103EE80005D07B68DB68012B01D00123BBE1564B71
:103EF8001B6823F0F8027B681B69DB0052491343F7
:103F08000B603AE07B68DB68002B20D04F4B012226
:103F18001A60FDF761FE386108E0FDF75DFE0246B4
:103F28003B69D31A022B01D903239CE1464B1B683A
:103F380003F00203002BF0D0434B1B6823F0F80278
:103F48007B681B69DB00404913430B6015E03F4B5E
:103F580000221A60FDF740FE386108E0FDF73CFEDC
:103F680002463B69D31A022B01D903237BE1364B66
:103F78001B6803F00203002BF0D17B681B6803F079
:103F88000803002B30D07B685B69002B16D0304BC0
:103F980001221A60FDF720FE386108E0FDF71CFEDB
:103FA80002463B69D31A022B01D903235BE1264B56
:103FB8005B6F03F00203002BF0D015E0244B0022C6
:103FC8001A60FDF709FE386108E0FDF705FE0246B4
:103FD8003B69D31A022B01D9032344E11A4B5B6FC7
:103FE80003F00203002BF0D17B681B6803F0040385
:103FF800002B00F0A0800023FB75134B1B6C03F013
:104008008053002B0FD10023BB600F4B1B6C0E4A53
:1040180043F0805313640C4B1B6C03F08053BB605C
:10402800BB680123FB750B4B1B6803F48073002BE3
:1040380021D1084B1B68074A43F480731360FDF7CE
:10404800CBFD386111E000BF003802400000474254
:10405800800E474200700040FDF7BEFD02463B69F6
:10406800D31A022B01D90323FDE0814B1B6803F40B
:104078008073002BF0D07B689B68012B06D17D4BA9
:104088001B6F7C4A43F0010313671CE07B689B6845
:10409800052B0CD1774B1B6F764A43F0040313674B
:1040A800744B1B6F734A43F0010313670BE0714BAA
:1040B8001B6F704A23F0010313676E4B1B6F6D4A29
:1040C80023F0040313677B689B68002B15D0FDF76A
:1040D80083FD38610AE0FDF77FFD02463B69D31A8C
:1040E80041F28832934201D90323BCE0614B1B6F34
:1040F80003F00203002BEED014E0FDF76DFD3861EC
:104108000AE0FDF769FD02463B69D31A41F288329D
:10411800934201D90323A6E0564B1B6F03F0020319
:10412800002BEED1FB7D012B05D1524B1B6C514A64
:1041380023F0805313647B689B69002B00F0928006
:104148004C4B9B6803F00C03082B5CD07B689B6985
:10415800022B41D1484B00221A60FDF73DFD386122
:1041680008E0FDF739FD02463B69D31A022B01D955
:10417800032378E03F4B1B6803F00073002BF0D15A
:104188007B68DA697B681B6A1A437B685B6A9B01F8
:104198001A437B689B6A5B08013B1B041A437B68D4
:1041A800DB6A1B06334913434B60334B01221A6009
:1041B800FDF712FD386108E0FDF70EFD02463B6988
:1041C800D31A022B01D903234DE02A4B1B6803F0B5
:1041D8000073002BF0D045E0274B00221A60FDF752
:1041E800FBFC386108E0FDF7F7FC02463B69D31A8F
:1041F800022B01D9032336E01E4B1B6803F0007322
:10420800002BF0D12EE07B689B69012B01D10123A3
:1042180029E0184B9B68FB60FB6803F480027B680D
:10422800DB699A421CD1FB6803F03F027B681B6A7A
:104238009A4215D1FA6847F6C07313407A68526AF1
:1042480093420DD1FB6803F440327B689B6A9A4223
:1042580006D1FB6803F070627B68DB6A9A4201D082
:10426800012300E0002318461837BD4680BD00BF73
:1042780000700040003802406000474280B584B0BA
:1042880000AF786039607B68002B01D10123CCE056
:10429800684B1B6803F00F033A689A420CD9654BC8
:1042A8003A68D2B21A70634B1B6803F00F033A687E
:1042B8009A4201D00123B8E07B681B6803F002032F
:1042C800002B20D07B681B6803F00403002B05D06B
:1042D800594B9B68584A43F4E05393607B681B68CA
:1042E80003F00803002B05D0534B9B68524A43F454
:1042F80060439360504B9B6823F0F0027B689B6897
:104308004D4913438B607B681B6803F00103002B46
:1043180044D07B685B68012B07D1474B1B6803F4CB
:104328000033002B19D101237FE07B685B68022BE7
:1043380003D07B685B68032B07D13F4B1B6803F0F6
:104348000073002B09D101236FE03B4B1B6803F07E
:104358000203002B01D1012367E0374B9B6823F050
:1043680003027B685B68344913438B60FDF734FCB8
:10437800F8600AE0FDF730FC0246FB68D31A41F208
:104388008832934201D903234FE02B4B9B6803F0FB
:104398000C027B685B689B009A42EBD1254B1B683B
:1043A80003F00F033A689A420CD2224B3A68D2B211
:1043B8001A70204B1B6803F00F033A689A4201D029
:1043C800012332E07B681B6803F00403002B08D04C
:1043D800194B9B6823F4E0527B68DB68164913434A
:1043E8008B607B681B6803F00803002B09D0124B15
:1043F8009B6823F460427B681B69DB000E4913430A
:104408008B6000F021F801460B4B9B681B0903F0F9
:104418000F030A4AD35C21FA03F3094A1360094BD4
:104428001B681846FDF794FB002318461037BD4655
:1044380080BD00BF003C024000380240B085000843
:104448000000002004000020F0B585B000AF002374
:104458007B600023FB6000233B600023BB60634B51
:104468009B6803F00C03042B07D0082B08D0002B03
:1044780040F0B4805E4BBB60B3E05E4BBB60B0E025
:104488005A4B5B6803F03F037B60584B5B6803F44F
:104498008003002B4AD0554B5B689B094FF0000402
:1044A80040F2FF114FF0000203EA010504EA020698
:1044B800294632464FF000034FF00004540144EA05
:1044C800D1644B0119462246491B62EB06024FF0A4
:1044D80000034FF00004940144EA91648B015B1AD5
:1044E80064EB02044FF000014FF00002E20042EAE0
:1044F8005372D9000B4614465B1944EB06044FF07F
:1045080000014FF00002620242EAD35259020B4600
:104518001446184621467B684FF000041A46234685
:10452800FCF744FA03460C46FB6049E02F4B5B68F6
:104538009B094FF0000440F2FF114FF0000203EA1C
:10454800010504EA0206294632464FF000034FF0FF
:104558000004540144EAD1644B0119462246491B20
:1045680062EB06024FF000034FF00004940144EAA6
:1045780091648B015B1A64EB02044FF000014FF069
:104588000002E20042EA5372D9000B4614465B1956
:1045980044EB06044FF000014FF00002A20242EA89
:1045A800935299020B461446184621467B684FF0F1
:1045B80000041A462346FCF7F9F903460C46FB604B
:1045C8000A4B5B681B0C03F0030301335B003B6081
:1045D800FA683B68B2FBF3F3BB6002E0044BBB60D4
:1045E80000BFBB6818461437BD46F0BD003802400E
:1045F8000024F40000127A0080B400AF034B1B685B
:104608001846BD465DF8047B704700BF00000020D7
:1046180080B500AFFFF7F0FF0146054B9B689B0A8A
:1046280003F00703034AD35C21FA03F3184680BD5D
:1046380000380240C085000880B582B000AF7860BD
:104648007B68002B01D1012356E07B6800229A6227
:104658007B6893F85130DBB2002B06D17B680022CF
:1046680083F850207868FDF7D9F87B68022283F830
:1046780051207B681B681A687B681B6822F040021F
:104688001A607B685A687B689B681A437B68DB689A
:104698001A437B681B691A437B685B691A437B680A
:1046A8009B6903F400731A437B68DB691A437B68D0
:1046B8001B6A42EA03017B689A6A7B681B680A43A3
:1046C8001A607B689B691B0C03F004017B685A6ABB
:1046D8007B681B680A435A607B681B68DA697B68D9
:1046E8001B6822F40062DA617B6800225A657B68E5
:1046F800012283F85120002318460837BD4680BDA3
:1047080080B582B000AF78607B68002B01D10123AF
:104718001DE07B6893F83D30DBB2002B06D17B6847
:10472800002283F83C207868FDF7C0F87B680222F5
:1047380083F83D207B681A687B6804331946104665
:1047480000F0E4F87B68012283F83D200023184636
:104758000837BD4680BD80B485B000AF78607B68FF
:10476800022283F83D207B681B689B6803F00703DF
:10477800FB60FB68062B07D07B681B681A687B68A0
:104788001B6842F001021A607B68012283F83D2011
:10479800002318461437BD465DF8047B704780B582
:1047A80084B000AF786039607B6893F83C30012BA7
:1047B80001D10223A6E07B68012283F83C207B68B4
:1047C800022283F83D207B681B689B68FB60FB68BE
:1047D80023F07703FB60FB6823F47F43FB607B686F
:1047E8001B68FA689A603B681B68402B67D0402BAF
:1047F8000BD8102B73D0102B02D8002B6FD078E079
:10480800202B6CD0302B6AD073E0702B0DD0702B1E
:1048180004D8502B33D0602B41D06AE0B3F5805FC9
:1048280066D0B3F5005F17D063E07B6818683B6813
:1048380099683B685A683B68DB6800F081F97B68D7
:104848001B689B68FB60FB6843F07703FB607B6831
:104858001B68FA689A604CE07B6818683B6899683E
:104868003B685A683B68DB6800F06AF97B681B683C
:104878009A687B681B6842F480429A6039E07B68DA
:1048880018683B6859683B68DB681A4600F0DEF830
:104898007B681B685021184600F037F929E07B68CF
:1048A80018683B6859683B68DB681A4600F0FDF8F1
:1048B8007B681B686021184600F027F919E07B68BF
:1048C80018683B6859683B68DB681A4600F0BEF810
:1048D8007B681B684021184600F017F909E07B68DF
:1048E8001A683B681B681946104600F00EF900E08C
:1048F80000BF7B68012283F83D207B68002283F893
:104908003C20002318461037BD4680BD80B485B0D2
:1049180000AF786039607B681B68FB607B68404A41
:10492800934213D07B68B3F1804F0FD07B683D4A28
:1049380093420BD07B683C4A934207D07B683B4A42
:10494800934203D07B683A4A934208D1FB6823F02C
:104958007003FB603B685B68FA681343FB607B6825
:104968002F4A93422BD07B68B3F1804F27D07B68C6
:104978002C4A934223D07B682B4A93421FD07B68F2
:104988002A4A93421BD07B68294A934217D07B68F6
:10499800284A934213D07B68274A93420FD07B68FA
:1049A800264A93420BD07B68254A934207D07B68FE
:1049B800244A934203D07B68234A934208D1FB6878
:1049C80023F44073FB603B68DB68FA681343FB60C1
:1049D800FB6823F080023B685B691343FB607B68DC
:1049E800FA681A603B689A687B68DA623B681A68FA
:1049F8007B689A627B680A4A934203D07B680C4AB8
:104A0800934203D13B681A697B681A637B68012269
:104A18005A6100BF1437BD465DF8047B704700BF7C
:104A2800000001400004004000080040000C004065
:104A3800000401400040014000440140004801409A
:104A480000180040001C00400020004080B487B0DF
:104A580000AFF860B9607A60FB681B6A7B61FB682D
:104A68001B6A23F00102FB681A62FB689B693B61C1
:104A78003B6923F0F0033B617B681B013A691343F0
:104A88003B617B6923F00A037B617A69BB68134346
:104A98007B61FB683A699A61FB687A691A6200BFB0
:104AA8001C37BD465DF8047B704780B487B000AF03
:104AB800F860B9607A60FB681B6A23F01002FB6833
:104AC8001A62FB689B697B61FB681B6A3B617B69B7
:104AD80023F470437B617B681B037A6913437B6112
:104AE8003B6923F0A0033B61BB681B013A69134390
:104AF8003B61FB687A699A61FB683A691A6200BF90
:104B08001C37BD465DF8047B704780B485B000AFA4
:104B1800786039607B689B68FB60FB6823F07003F2
:104B2800FB603A68FB68134343F00703FB607B684C
:104B3800FA689A6000BF1437BD465DF8047B704779
:104B480080B487B000AFF860B9607A603B60FB68FA
:104B58009B687B617B6923F47F437B613B681A0216
:104B68007B681A43BB6813437A6913437B61FB680C
:104B78007A699A6000BF1C37BD465DF8047B7047B0
:104B880080B485B000AF786039607B6893F83C30BA
:104B9800012B01D102235AE07B68012283F83C20D3
:104BA8007B68022283F83D207B681B685B68FB609A
:104BB8007B681B689B68BB60FB6823F07003FB6025
:104BC8003B681B68FA681343FB607B681B68FA68DC
:104BD8005A607B681B68214A934222D07B681B6815
:104BE800B3F1804F1DD07B681B681D4A934218D0D3
:104BF8007B681B681B4A934213D07B681B681A4A60
:104C080093420ED07B681B68184A934209D07B6890
:104C18001B68174A934204D07B681B68154A934265
:104C28000CD1BB6823F08003BB603B685B68BA6843
:104C38001343BB607B681B68BA689A607B68012273
:104C480083F83D207B68002283F83C200023184627
:104C58001437BD465DF8047B704700BF0000014073
:104C68000004004000080040000C0040000401401F
:104C7800004001400018004084B080B584B000AF07
:104C8800786007F11C0080E80E003B6B012B22D1F5
:104C98007B689B6B23F480327B689A637B68DB6854
:104CA80023F4840323F040037A68D3607B68DB68CD
:104CB80023F440127B68DA60FB6C012B05D17B681A
:104CC800DB6843F480127B68DA60786801F07CFA6C
:104CD8000346FB731AE07B68DB6843F040027B689D
:104CE800DA60786801F070FA0346FB733B6C002BBE
:104CF80006D17B689B6B43F480327B689A6305E03E
:104D08007B689B6B23F480327B689A63BB6A012BB8
:104D18000BD17B689B6843F006027B689A607B68CE
:104D28009B6843F020027B689A60FB7B184610372B
:104D3800BD46BDE8804004B07047000080B487B02D
:104D480000AFF860B9601346FB71FB79022B65D19F
:104D5800BB68414A934206D9BB68404A934202D88D
:104D68000F237B6162E0BB683C4A934206D9BB686B
:104D78003B4A934202D80E237B6157E0BB68384A0E
:104D8800934206D9BB68374A934202D80D237B6108
:104D98004CE0BB68334A934206D9BB68324A934217
:104DA80002D80C237B6141E0BB682F4A934206D9A5
:104DB800BB682E4A934202D80B237B6136E0BB685E
:104DC8002A4A934206D9BB68294A934202D80A2341
:104DD8007B612BE0BB68264A934206D9BB68254A0B
:104DE800934202D809237B6120E0BB68214A9342A1
:104DF80006D9BB68204A934202D808237B6115E094
:104E0800BB681D4A934206D9BB681C4A934202D824
:104E180007237B610AE006237B6107E0FB79002B0F
:104E280002D109237B6101E009237B61FB68DB6810
:104E380023F47052FB68DA60FB68DA687B699B02CE
:104E480003F470531A43FB68DA60002318461C37D2
:104E5800BD465DF8047B7047BFACD800BFE1E400F5
:104E6800FF23F4007F7306019F491A01FF2C3101CB
:104E78003FA44C01FF356E011FABA601FF47E801B7
:104E880080B483B000AF78607B689B6843F0010210
:104E98007B689A60002318460C37BD465DF8047B92
:104EA800704780B483B000AF78607B689B6823F05C
:104EB80001027B689A60002318460C37BD465DF8EE
:104EC800047B704780B582B000AF78600B46FB70FA
:104ED8007B68DB6823F0C0427B68DA60FB78012BD3
:104EE80006D17B68DB6843F000527B68DA600BE030
:104EF800FB78002B06D17B68DB6843F080427B6837
:104F0800DA6001E0012303E03220FCF771FE0023A0
:104F180018460837BD4680BD84B080B586B000AF5E
:104F2800786007F1240080E80E000023FB757B6899
:104F3800FB6000233B6109E07A683B6940339B00D2
:104F4800134400225A603B6901333B613B690E2BD5
:104F5800F2D9FB6C002B12D17B689B6B43F40012D7
:104F68007B689A637B689B6B23F400227B689A6357
:104F78007B689B6B23F480227B689A630BE07B68D9
:104F88001B6823F400127B681A607B689B6B43F4F0
:104F980000227B689A63FB6803F560631A46002366
:104FA8001360FB6803F500631946FB6803F50063AB
:104FB8001A460B681360BB6B012B0CD1FB6A002BE4
:104FC80004D10021786800F061F908E001217868CF
:104FD80000F05CF903E00321786800F057F910212C
:104FE800786800F00BF90346002B01D00123FB750C
:104FF800786800F029F90346002B01D00123FB75DE
:10500800FB6803F500631A4600231361FB6803F588
:1050180000631A4600235361FB6803F500631A46D0
:105028000023D36100233B6143E03B695A01FB68DD
:10503800134403F510631B6803F00043B3F1004FFA
:1050480018D13B69002B0AD13B695A01FB6813440C
:1050580003F510631A464FF00063136013E03B69D1
:105068005A01FB68134403F510631A464FF0904346
:10507800136008E03B695A01FB68134403F51063A9
:105088001A46002313603B695A01FB68134403F571
:1050980010631A46002313613B695A01FB681344E5
:1050A80003F510631A464FF67F3393603B6901336B
:1050B8003B617B6A3A699A42B7D300233B6143E07C
:1050C8003B695A01FB68134403F530631B6803F01E
:1050D8000043B3F1004F18D13B69002B0AD13B695B
:1050E8005A01FB68134403F530631A464FF0006316
:1050F800136013E03B695A01FB68134403F53063FE
:105108001A464FF09043136008E03B695A01FB6868
:10511800134403F530631A46002313603B695A01B0
:10512800FB68134403F530631A46002313613B6997
:105138005A01FB68134403F530631A464FF67F3370
:1051480093603B6901333B617B6A3A699A42B7D302
:10515800FB6803F500631B69FA6802F5006223F433
:10516800807313613B6B012B11D1FB6803F500635E
:105178001A46204B1363FB6803F500631B6BFA6840
:1051880002F5006243F4803343F0030313637B6842
:1051980000229A617B686FF080425A613B6B002B5A
:1051A80005D17B689B6943F010027B689A617B6834
:1051B8009A69114B13437A689361FB6B002B05D0F6
:1051C8007B689B6943F008027B689A61FB6C012B42
:1051D80007D17B689B6943F0804343F004037A68F6
:1051E8009361FB7D18461837BD46BDE8804004B082
:1051F800704700BF0001800000383C8080B485B053
:1052080000AF786039600023FB603B689B0143F086
:1052180020027B681A61FB680133FB60FB68094A5E
:10522800934201D9032306E07B681B6903F020033E
:10523800202BF0D0002318461437BD465DF8047BB8
:10524800704700BF400D030080B485B000AF7860A0
:105258000023FB607B6810221A61FB680133FB6046
:10526800FB68094A934201D9032306E07B681B695E
:1052780003F01003102BF0D0002318461437BD4656
:105288005DF8047B704700BF400D030080B485B013
:1052980000AF78600B46FB707B68FB60FB6803F52A
:1052A80000631A68FB78F96801F5006113430B6025
:1052B800002318461437BD465DF8047B704780B458
:1052C80087B000AF78607B683B613B6903F500639A
:1052D8009B6803F00603FB60FB68002B02D10023E8
:1052E800FB750AE0FB68022B02D0FB68062B02D193
:1052F8000223FB7501E00F23FB75FB7D18461C3765
:10530800BD465DF8047B704780B485B000AF786017
:1053180039607B68FB603B681B78BB603B685B78E7
:10532800012B3AD1FB6803F50063DA693B681B7807
:1053380003F00F03012101FA03F39BB2F96801F5A9
:1053480000611343CB61BB685A01FB68134403F542
:1053580010631B6803F40043002B55D1BB685A0146
:10536800FB68134403F510631A683B689B68C3F332
:105378000A013B68DB789B041943BB689B050B4318
:105388001343BA685101FA680A4402F5106243F0FF
:10539800805343F40043136036E0FB6803F5006371
:1053A800DA693B681B7803F00F03012101FA03F364
:1053B8001B04F96801F500611343CB61BB685A010E
:1053C800FB68134403F530631B6803F40043002BA8
:1053D8001AD1BB685A01FB68134403F530631A6895
:1053E8003B689B68C3F30A013B68DB789B040B436B
:1053F8001343BA685101FA680A4402F5306243F06F
:10540800805343F400431360002318461437BD4605
:105418005DF8047B7047000080B485B000AF786009
:1054280039607B68FB603B681B78BB603B685B78D6
:10543800012B35D1FB6803F50063DA6B3B681B78F9
:1054480003F00F03012101FA03F39BB2DB43F96870
:1054580001F500611340CB63FB6803F50063DA696B
:105468003B681B7803F00F03012101FA03F39BB299
:10547800DB43F96801F500611340CB61BB685A0151
:10548800FB68134403F510631A68BB685901FB688D
:105498000B4403F5106319461F4B13400B6034E0AF
:1054A800FB6803F50063DA6B3B681B7803F00F03B6
:1054B800012101FA03F31B04DB43F96801F50061DC
:1054C8001340CB63FB6803F50063DA693B681B781C
:1054D80003F00F03012101FA03F31B04DB43F9680E
:1054E80001F500611340CB61BB685A01FB681344A6
:1054F80003F530631A68BB685901FB680B4403F570
:1055080030631946054B13400B60002318461437C7
:10551800BD465DF8047B7047007833EC0078F3EF04
:1055280080B58AB002AFF860B9601346FB71FB68BA
:10553800FB61BB681B78BB61BB685B78012B40F0E3
:105548005C81BB685B69002B32D1BB695A01FB697E
:10555800134403F510631B69BA695101FA690A44D7
:1055680002F5106223F0FF5323F4C0131361BB69E3
:105578005A01FB69134403F510631B69BA695101A9
:10558800FA690A4402F5106243F400231361BB6907
:105598005A01FB69134403F510631B69BA69510189
:1055A800FA690A4402F51062DB0CDB04136174E04B
:1055B800BB695A01FB69134403F510631B69BA6997
:1055C8005101FA690A4402F51062DB0CDB0413612D
:1055D800BB695A01FB69134403F510631B69BA6977
:1055E8005101FA690A4402F5106223F0FF5323F4CB
:1055F800C0131361BB695A01FB69134403F51063B7
:105608001A69BB685969BB689B680B44591EBB681B
:105618009B68B1FBF3F3D9049D4B0B40B969480172
:10562800F969014401F5106113430B61BB695A0123
:10563800FB69134403F510631A69BB685B69C3F31C
:105648001203B9694801F969014401F5106113436E
:105658000B61BB68DB78012B1FD1BB695A01FB6961
:10566800134403F510631B69BA695101FA690A44C6
:1056780002F5106223F0C0431361BB695A01FB694C
:10568800134403F510631B69BA695101FA690A44A6
:1056980002F5106243F000531361FB79012B4BD1E3
:1056A800BB681B69002B09D0BB695A01FB6913440D
:1056B80003F510631A46BB681B695361BB68DB7846
:1056C800012B28D1FB6903F500639B6803F4807301
:1056D800002B10D1BB695A01FB69134403F5106311
:1056E8001B68BA695101FA690A4402F5106243F06D
:1056F800005313600FE0BB695A01FB69134403F5BB
:1057080010631B68BA695101FA690A4402F510620C
:1057180043F080531360BB695A01FB69134403F5D6
:1057280010631B68BA695101FA690A4402F51062EC
:1057380043F0044313602FE1BB695A01FB6913442A
:1057480003F510631B68BA695101FA690A4402F546
:10575800106243F004431360BB68DB78012B15D05B
:10576800BB685B69002B00F01781FB6903F50063D8
:105778005A6BBB681B7803F00F03012101FA03F38E
:10578800F96901F5006113434B6305E1FB6903F512
:1057980000639B6803F48073002B10D1BB695A0126
:1057A800FB69134403F510631B68BA695101FA6970
:1057B8000A4402F5106243F0005313600FE0BB691E
:1057C8005A01FB69134403F510631B68BA69510158
:1057D800FA690A4402F5106243F080531360BB680B
:1057E800D968BB681A78BB685B6998B2FB79009383
:1057F8000346F86800F02BFACEE0BB695A01FB6952
:10580800134403F530631B69BA695101FA690A4404
:1058180002F53062DB0CDB041361BB695A01FB69DA
:10582800134403F530631B69BA695101FA690A44E4
:1058380002F5306223F0FF5323F4C0131361BB68F1
:105848005B69002B26D1BB695A01FB69134403F538
:1058580030631A69BB689B68C3F31203B9694801CE
:10586800F969014401F5306113430B61BB695A01C1
:10587800FB69134403F530631B69BA695101FA697E
:105888000A4402F5306243F40023136136E000BF96
:105898000000F81FBB685A69BB689B6813445A1E0E
:1058A800BB689B68B2FBF3F3FB82BB695A01FB69D7
:1058B800134403F530631A69FB8AD904394B0B404A
:1058C800B9694801F969014401F5306113430B6175
:1058D800BB695A01FB69134403F530631A69BB6855
:1058E8009B68F98A01FB03F3C3F31203B969480102
:1058F800F969014401F5306113430B61FB79012B10
:105908000DD1BB68DB68002B09D0BB68D968BB69BF
:105918005A01FB69134403F530630A465A61BB68B0
:10592800DB78012B28D1FB6903F500639B6803F43E
:105938008073002B10D1BB695A01FB69134403F52E
:1059480030631B68BA695101FA690A4402F530628A
:1059580043F0005313600FE0BB695A01FB6913441D
:1059680003F530631B68BA695101FA690A4402F504
:10597800306243F080531360BB695A01FB691344DA
:1059880003F530631B68BA695101FA690A4402F5E4
:10599800306243F004431360002318462037BD46A5
:1059A80080BD00BF0000F81F80B487B000AFF8606A
:1059B800B9601346FB71FB687B61BB681B783B6170
:1059C800BB685B78012B40F0CD80BB685B69002B1E
:1059D80032D13B695A017B69134403F510631B6993
:1059E8003A6951017A690A4402F5106223F0FF53BB
:1059F80023F4C01313613B695A017B69134403F50F
:105A080010631B693A6951017A690A4402F5106208
:105A180043F4002313613B695A017B69134403F57E
:105A280010631B693A6951017A690A4402F51062E8
:105A3800DB0CDB0413614EE03B695A017B691344BC
:105A480003F510631B693A6951017A690A4402F542
:105A58001062DB0CDB0413613B695A017B69134458
:105A680003F510631B693A6951017A690A4402F522
:105A7800106223F0FF5323F4C0131361BB685A6903
:105A8800BB689B689A4203D9BB689A68BB685A612D
:105A98003B695A017B69134403F510631B693A6932
:105AA80051017A690A4402F5106243F40023136134
:105AB8003B695A017B69134403F510631A69BB6893
:105AC8005B69C3F31203396948017969014401F537
